{
  "_format": "hh-sol-artifact-1",
  "contractName": "Certificate",
  "sourceName": "contracts/Certificate.sol",
  "abi": [
    {
      "inputs": [],
      "stateMutability": "nonpayable",
      "type": "constructor"
    },
    {
      "inputs": [
        {
          "internalType": "string",
          "name": "_id",
          "type": "string"
        },
        {
          "internalType": "string",
          "name": "_name",
          "type": "string"
        },
        {
          "internalType": "string",
          "name": "_course",
          "type": "string"
        },
        {
          "internalType": "string",
          "name": "_hash",
          "type": "string"
        }
      ],
      "name": "addCertificate",
      "outputs": [],
      "stateMutability": "nonpayable",
      "type": "function"
    },
    {
      "inputs": [],
      "name": "admin",
      "outputs": [
        {
          "internalType": "address",
          "name": "",
          "type": "address"
        }
      ],
      "stateMutability": "view",
      "type": "function"
    },
    {
      "inputs": [
        {
          "internalType": "string",
          "name": "",
          "type": "string"
        }
      ],
      "name": "certificates",
      "outputs": [
        {
          "internalType": "string",
          "name": "studentName",
          "type": "string"
        },
        {
          "internalType": "string",
          "name": "course",
          "type": "string"
        },
        {
          "internalType": "string",
          "name": "hash",
          "type": "string"
        },
        {
          "internalType": "bool",
          "name": "isValid",
          "type": "bool"
        }
      ],
      "stateMutability": "view",
      "type": "function"
    },
    {
      "inputs": [
        {
          "internalType": "string",
          "name": "_id",
          "type": "string"
        }
      ],
      "name": "revokeCertificate",
      "outputs": [],
      "stateMutability": "nonpayable",
      "type": "function"
    },
    {
      "inputs": [
        {
          "internalType": "string",
          "name": "_id",
          "type": "string"
        }
      ],
      "name": "verifyCertificate",
      "outputs": [
        {
          "internalType": "bool",
          "name": "",
          "type": "bool"
        }
      ],
      "stateMutability": "view",
      "type": "function"
    }
  ],
  "bytecode": "0x608060405234801561001057600080fd5b50336000806101000a81548173ffffffffffffffffffffffffffffffffffffffff021916908373ffffffffffffffffffffffffffffffffffffffff160217905550610fe4806100606000396000f3fe608060405234801561001057600080fd5b50600436106100575760003560e01c8063142e15421461005c57806372c44638146100785780638b23d875146100945780638f2b91ea146100c4578063f851a440146100f7575b600080fd5b610076600480360381019061007191906107cc565b610115565b005b610092600480360381019061008d9190610815565b6101e0565b005b6100ae60048036038101906100a991906107cc565b61042b565b6040516100bb9190610907565b60405180910390f35b6100de60048036038101906100d991906107cc565b610463565b6040516100ee94939291906109a1565b60405180910390f35b6100ff61064e565b60405161010c9190610a3c565b60405180910390f35b60008054906101000a900473ffffffffffffffffffffffffffffffffffffffff1673ffffffffffffffffffffffffffffffffffffffff163373ffffffffffffffffffffffffffffffffffffffff16146101a3576040517f08c379a000000000000000000000000000000000000000000000000000000000815260040161019a90610aa3565b60405180910390fd5b60006001826040516101b59190610aff565b908152602001604051809103902060030160006101000a81548160ff02191690831515021790555050565b60008054906101000a900473ffffffffffffffffffffffffffffffffffffffff1673ffffffffffffffffffffffffffffffffffffffff163373ffffffffffffffffffffffffffffffffffffffff161461026e576040517f08c379a000000000000000000000000000000000000000000000000000000000815260040161026590610aa3565b60405180910390fd5b60008451116102b2576040517f08c379a00000000000000000000000000000000000000000000000000000000081526004016102a990610b62565b60405180910390fd5b60008351116102f6576040517f08c379a00000000000000000000000000000000000000000000000000000000081526004016102ed90610bce565b60405180910390fd5b600082511161033a576040517f08c379a000000000000000000000000000000000000000000000000000000000815260040161033190610c3a565b60405180910390fd5b600081511161037e576040517f08c379a000000000000000000000000000000000000000000000000000000000815260040161037590610ca6565b60405180910390fd5b6040518060800160405280848152602001838152602001828152602001600115158152506001856040516103b29190610aff565b908152602001604051809103902060008201518160000190816103d59190610edc565b5060208201518160010190816103eb9190610edc565b5060408201518160020190816104019190610edc565b5060608201518160030160006101000a81548160ff02191690831515021790555090505050505050565b600060018260405161043d9190610aff565b908152602001604051809103902060030160009054906101000a900460ff169050919050565b60018180516020810182018051848252602083016020850120818352809550505050505060009150905080600001805461049c90610cf5565b80601f01602080910402602001604051908101604052809291908181526020018280546104c890610cf5565b80156105155780601f106104ea57610100808354040283529160200191610515565b820191906000526020600020905b8154815290600101906020018083116104f857829003601f168201915b50505050509080600101805461052a90610cf5565b80601f016020809104026020016040519081016040528092919081815260200182805461055690610cf5565b80156105a35780601f10610578576101008083540402835291602001916105a3565b820191906000526020600020905b81548152906001019060200180831161058657829003601f168201915b5050505050908060020180546105b890610cf5565b80601f01602080910402602001604051908101604052809291908181526020018280546105e490610cf5565b80156106315780601f1061060657610100808354040283529160200191610631565b820191906000526020600020905b81548152906001019060200180831161061457829003601f168201915b5050505050908060030160009054906101000a900460ff16905084565b60008054906101000a900473ffffffffffffffffffffffffffffffffffffffff1681565b6000604051905090565b600080fd5b600080fd5b600080fd5b600080fd5b6000601f19601f8301169050919050565b7f4e487b7100000000000000000000000000000000000000000000000000000000600052604160045260246000fd5b6106d982610690565b810181811067ffffffffffffffff821117156106f8576106f76106a1565b5b80604052505050565b600061070b610672565b905061071782826106d0565b919050565b600067ffffffffffffffff821115610737576107366106a1565b5b61074082610690565b9050602081019050919050565b82818337600083830152505050565b600061076f61076a8461071c565b610701565b90508281526020810184848401111561078b5761078a61068b565b5b61079684828561074d565b509392505050565b600082601f8301126107b3576107b2610686565b5b81356107c384826020860161075c565b91505092915050565b6000602082840312156107e2576107e161067c565b5b600082013567ffffffffffffffff811115610800576107ff610681565b5b61080c8482850161079e565b91505092915050565b6000806000806080858703121561082f5761082e61067c565b5b600085013567ffffffffffffffff81111561084d5761084c610681565b5b6108598782880161079e565b945050602085013567ffffffffffffffff81111561087a57610879610681565b5b6108868782880161079e565b935050604085013567ffffffffffffffff8111156108a7576108a6610681565b5b6108b38782880161079e565b925050606085013567ffffffffffffffff8111156108d4576108d3610681565b5b6108e08782880161079e565b91505092959194509250565b60008115159050919050565b610901816108ec565b82525050565b600060208201905061091c60008301846108f8565b92915050565b600081519050919050565b600082825260208201905092915050565b60005b8381101561095c578082015181840152602081019050610941565b60008484015250505050565b600061097382610922565b61097d818561092d565b935061098d81856020860161093e565b61099681610690565b840191505092915050565b600060808201905081810360008301526109bb8187610968565b905081810360208301526109cf8186610968565b905081810360408301526109e38185610968565b90506109f260608301846108f8565b95945050505050565b600073ffffffffffffffffffffffffffffffffffffffff82169050919050565b6000610a26826109fb565b9050919050565b610a3681610a1b565b82525050565b6000602082019050610a516000830184610a2d565b92915050565b7f4e6f7420617574686f72697a6564000000000000000000000000000000000000600082015250565b6000610a8d600e8361092d565b9150610a9882610a57565b602082019050919050565b60006020820190508181036000830152610abc81610a80565b9050919050565b600081905092915050565b6000610ad982610922565b610ae38185610ac3565b9350610af381856020860161093e565b80840191505092915050565b6000610b0b8284610ace565b915081905092915050565b7f49442063616e6e6f7420626520656d7074790000000000000000000000000000600082015250565b6000610b4c60128361092d565b9150610b5782610b16565b602082019050919050565b60006020820190508181036000830152610b7b81610b3f565b9050919050565b7f4e616d652063616e6e6f7420626520656d707479000000000000000000000000600082015250565b6000610bb860148361092d565b9150610bc382610b82565b602082019050919050565b60006020820190508181036000830152610be781610bab565b9050919050565b7f436f757273652063616e6e6f7420626520656d70747900000000000000000000600082015250565b6000610c2460168361092d565b9150610c2f82610bee565b602082019050919050565b60006020820190508181036000830152610c5381610c17565b9050919050565b7f486173682063616e6e6f7420626520656d707479000000000000000000000000600082015250565b6000610c9060148361092d565b9150610c9b82610c5a565b602082019050919050565b60006020820190508181036000830152610cbf81610c83565b9050919050565b7f4e487b7100000000000000000000000000000000000000000000000000000000600052602260045260246000fd5b60006002820490506001821680610d0d57607f821691505b602082108103610d2057610d1f610cc6565b5b50919050565b60008190508160005260206000209050919050565b60006020601f8301049050919050565b600082821b905092915050565b600060088302610d887fffffffffffffffffffffffffffffffffffffffffffffffffffffffffffffffff82610d4b565b610d928683610d4b565b95508019841693508086168417925050509392505050565b6000819050919050565b6000819050919050565b6000610dd9610dd4610dcf84610daa565b610db4565b610daa565b9050919050565b6000819050919050565b610df383610dbe565b610e07610dff82610de0565b848454610d58565b825550505050565b600090565b610e1c610e0f565b610e27818484610dea565b505050565b5b81811015610e4b57610e40600082610e14565b600181019050610e2d565b5050565b601f821115610e9057610e6181610d26565b610e6a84610d3b565b81016020851015610e79578190505b610e8d610e8585610d3b565b830182610e2c565b50505b505050565b600082821c905092915050565b6000610eb360001984600802610e95565b1980831691505092915050565b6000610ecc8383610ea2565b9150826002028217905092915050565b610ee582610922565b67ffffffffffffffff811115610efe57610efd6106a1565b5b610f088254610cf5565b610f13828285610e4f565b600060209050601f831160018114610f465760008415610f34578287015190505b610f3e8582610ec0565b865550610fa6565b601f198416610f5486610d26565b60005b82811015610f7c57848901518255600182019150602085019450602081019050610f57565b86831015610f995784890151610f95601f891682610ea2565b8355505b6001600288020188555050505b50505050505056fea2646970667358221220403c3295118e129272e8d4402cf7f23f4f021f3afb39685a739ce5b97055e6a164736f6c63430008140033",
  "linkReferences": {},
  "deployedLinkReferences": {}
}