{
  "_format": "hh-sol-artifact-1",
  "contractName": "Certificate",
  "sourceName": "contracts/Certificate.sol",
  "abi": [
    {
      "inputs": [],
      "stateMutability": "nonpayable",
      "type": "constructor"
    },
    {
      "inputs": [
        {
          "internalType": "string",
          "name": "_id",
          "type": "string"
        },
        {
          "internalType": "string",
          "name": "_name",
          "type": "string"
        },
        {
          "internalType": "string",
          "name": "_course",
          "type": "string"
        },
        {
          "internalType": "string",
          "name": "_hash",
          "type": "string"
        }
      ],
      "name": "addCertificate",
      "outputs": [],
      "stateMutability": "nonpayable",
      "type": "function"
    },
    {
      "inputs": [],
      "name": "admin",
      "outputs": [
        {
          "internalType": "address",
          "name": "",
          "type": "address"
        }
      ],
      "stateMutability": "view",
      "type": "function"
    },
    {
      "inputs": [
        {
          "internalType": "string",
          "name": "",
          "type": "string"
        }
      ],
      "name": "certificates",
      "outputs": [
        {
          "internalType": "string",
          "name": "studentName",
          "type": "string"
        },
        {
          "internalType": "string",
          "name": "course",
          "type": "string"
        },
        {
          "internalType": "string",
          "name": "hash",
          "type": "string"
        },
        {
          "internalType": "bool",
          "name": "isValid",
          "type": "bool"
        }
      ],
      "stateMutability": "view",
      "type": "function"
    },
    {
      "inputs": [
        {
          "internalType": "string",
          "name": "_id",
          "type": "string"
        }
      ],
      "name": "revokeCertificate",
      "outputs": [],
      "stateMutability": "nonpayable",
      "type": "function"
    },
    {
      "inputs": [
        {
          "internalType": "string",
          "name": "_id",
          "type": "string"
        }
      ],
      "name": "verifyCertificate",
      "outputs": [
        {
          "internalType": "bool",
          "name": "",
          "type": "bool"
        }
      ],
      "stateMutability": "view",
      "type": "function"
    }
  ],
  "bytecode": "0x608060405234801561001057600080fd5b50336000806101000a81548173ffffffffffffffffffffffffffffffffffffffff021916908373ffffffffffffffffffffffffffffffffffffffff160217905550610d24806100606000396000f3fe608060405234801561001057600080fd5b50600436106100575760003560e01c8063142e15421461005c57806372c44638146100785780638b23d875146100945780638f2b91ea146100c4578063f851a440146100f7575b600080fd5b610076600480360381019061007191906106bc565b610115565b005b610092600480360381019061008d9190610705565b6101e0565b005b6100ae60048036038101906100a991906106bc565b61031b565b6040516100bb91906107f7565b60405180910390f35b6100de60048036038101906100d991906106bc565b610353565b6040516100ee9493929190610891565b60405180910390f35b6100ff61053e565b60405161010c919061092c565b60405180910390f35b60008054906101000a900473ffffffffffffffffffffffffffffffffffffffff1673ffffffffffffffffffffffffffffffffffffffff163373ffffffffffffffffffffffffffffffffffffffff16146101a3576040517f08c379a000000000000000000000000000000000000000000000000000000000815260040161019a90610993565b60405180910390fd5b60006001826040516101b591906109ef565b908152602001604051809103902060030160006101000a81548160ff02191690831515021790555050565b60008054906101000a900473ffffffffffffffffffffffffffffffffffffffff1673ffffffffffffffffffffffffffffffffffffffff163373ffffffffffffffffffffffffffffffffffffffff161461026e576040517f08c379a000000000000000000000000000000000000000000000000000000000815260040161026590610993565b60405180910390fd5b6040518060800160405280848152602001838152602001828152602001600115158152506001856040516102a291906109ef565b908152602001604051809103902060008201518160000190816102c59190610c1c565b5060208201518160010190816102db9190610c1c565b5060408201518160020190816102f19190610c1c565b5060608201518160030160006101000a81548160ff02191690831515021790555090505050505050565b600060018260405161032d91906109ef565b908152602001604051809103902060030160009054906101000a900460ff169050919050565b60018180516020810182018051848252602083016020850120818352809550505050505060009150905080600001805461038c90610a35565b80601f01602080910402602001604051908101604052809291908181526020018280546103b890610a35565b80156104055780601f106103da57610100808354040283529160200191610405565b820191906000526020600020905b8154815290600101906020018083116103e857829003601f168201915b50505050509080600101805461041a90610a35565b80601f016020809104026020016040519081016040528092919081815260200182805461044690610a35565b80156104935780601f1061046857610100808354040283529160200191610493565b820191906000526020600020905b81548152906001019060200180831161047657829003601f168201915b5050505050908060020180546104a890610a35565b80601f01602080910402602001604051908101604052809291908181526020018280546104d490610a35565b80156105215780601f106104f657610100808354040283529160200191610521565b820191906000526020600020905b81548152906001019060200180831161050457829003601f168201915b5050505050908060030160009054906101000a900460ff16905084565b60008054906101000a900473ffffffffffffffffffffffffffffffffffffffff1681565b6000604051905090565b600080fd5b600080fd5b600080fd5b600080fd5b6000601f19601f8301169050919050565b7f4e487b7100000000000000000000000000000000000000000000000000000000600052604160045260246000fd5b6105c982610580565b810181811067ffffffffffffffff821117156105e8576105e7610591565b5b80604052505050565b60006105fb610562565b905061060782826105c0565b919050565b600067ffffffffffffffff82111561062757610626610591565b5b61063082610580565b9050602081019050919050565b82818337600083830152505050565b600061065f61065a8461060c565b6105f1565b90508281526020810184848401111561067b5761067a61057b565b5b61068684828561063d565b509392505050565b600082601f8301126106a3576106a2610576565b5b81356106b384826020860161064c565b91505092915050565b6000602082840312156106d2576106d161056c565b5b600082013567ffffffffffffffff8111156106f0576106ef610571565b5b6106fc8482850161068e565b91505092915050565b6000806000806080858703121561071f5761071e61056c565b5b600085013567ffffffffffffffff81111561073d5761073c610571565b5b6107498782880161068e565b945050602085013567ffffffffffffffff81111561076a57610769610571565b5b6107768782880161068e565b935050604085013567ffffffffffffffff81111561079757610796610571565b5b6107a38782880161068e565b925050606085013567ffffffffffffffff8111156107c4576107c3610571565b5b6107d08782880161068e565b91505092959194509250565b60008115159050919050565b6107f1816107dc565b82525050565b600060208201905061080c60008301846107e8565b92915050565b600081519050919050565b600082825260208201905092915050565b60005b8381101561084c578082015181840152602081019050610831565b60008484015250505050565b600061086382610812565b61086d818561081d565b935061087d81856020860161082e565b61088681610580565b840191505092915050565b600060808201905081810360008301526108ab8187610858565b905081810360208301526108bf8186610858565b905081810360408301526108d38185610858565b90506108e260608301846107e8565b95945050505050565b600073ffffffffffffffffffffffffffffffffffffffff82169050919050565b6000610916826108eb565b9050919050565b6109268161090b565b82525050565b6000602082019050610941600083018461091d565b92915050565b7f4e6f7420617574686f72697a6564000000000000000000000000000000000000600082015250565b600061097d600e8361081d565b915061098882610947565b602082019050919050565b600060208201905081810360008301526109ac81610970565b9050919050565b600081905092915050565b60006109c982610812565b6109d381856109b3565b93506109e381856020860161082e565b80840191505092915050565b60006109fb82846109be565b915081905092915050565b7f4e487b7100000000000000000000000000000000000000000000000000000000600052602260045260246000fd5b60006002820490506001821680610a4d57607f821691505b602082108103610a6057610a5f610a06565b5b50919050565b60008190508160005260206000209050919050565b60006020601f8301049050919050565b600082821b905092915050565b600060088302610ac87fffffffffffffffffffffffffffffffffffffffffffffffffffffffffffffffff82610a8b565b610ad28683610a8b565b95508019841693508086168417925050509392505050565b6000819050919050565b6000819050919050565b6000610b19610b14610b0f84610aea565b610af4565b610aea565b9050919050565b6000819050919050565b610b3383610afe565b610b47610b3f82610b20565b848454610a98565b825550505050565b600090565b610b5c610b4f565b610b67818484610b2a565b505050565b5b81811015610b8b57610b80600082610b54565b600181019050610b6d565b5050565b601f821115610bd057610ba181610a66565b610baa84610a7b565b81016020851015610bb9578190505b610bcd610bc585610a7b565b830182610b6c565b50505b505050565b600082821c905092915050565b6000610bf360001984600802610bd5565b1980831691505092915050565b6000610c0c8383610be2565b9150826002028217905092915050565b610c2582610812565b67ffffffffffffffff811115610c3e57610c3d610591565b5b610c488254610a35565b610c53828285610b8f565b600060209050601f831160018114610c865760008415610c74578287015190505b610c7e8582610c00565b865550610ce6565b601f198416610c9486610a66565b60005b82811015610cbc57848901518255600182019150602085019450602081019050610c97565b86831015610cd95784890151610cd5601f891682610be2565b8355505b6001600288020188555050505b50505050505056fea26469706673582212209117d341c2578a95dba0d931264d7bfceefce4329308ba36cfe0d1259b8abd0b64736f6c63430008140033",
  "linkReferences": {},
  "deployedLinkReferences": {}
}